:020000040800F2
:100000008006002089010008910100089301000882
:100010009501000897010008990100080000000000
:100020000000000000000000000000009B0100082C
:100030009D010008000000009F010008A1010008C8
:10004000A3010008A3010008A3010008A301000800
:10005000A3010008A3010008A3010008A3010008F0
:10006000A3010008A3010008E5020008A30100089D
:10007000A3010008A3010008A3010008A3010008D0
:10008000A3010008A3010008A3010008A3010008C0
:10009000A3010008A3010008A3010008A3010008B0
:1000A000A3010008A3010008A3010008A3010008A0
:1000B000A3010008A3010008A3010008A301000890
:1000C000A3010008A3010008A3010008A301000880
:1000D000A3010008A3010008A3010008A301000870
:1000E000A3010008A3010008A301000800F002F822
:1000F00000F03AF80AA090E8000C82448344AAF188
:100100000107DA4501D100F02FF8AFF2090EBAE885
:100110000F0013F0010F18BFFB1A43F0010318473B
:10012000AC130000CC130000103A24BF78C878C18B
:10013000FAD8520724BF30C830C144BF04680C60ED
:10014000704700000023002400250026103A28BF35
:1001500078C1FBD8520728BF30C148BF0B60704739
:100160001FB51FBD10B510BD00F031F81146FFF7E7
:10017000F7FF01F075F800F04FF803B4FFF7F2FF56
:1001800003BC00F057F800000948804709480047C1
:10019000FEE7FEE7FEE7FEE7FEE7FEE7FEE7FEE737
:1001A000FEE7FEE704480549054A064B7047000094
:1001B000F9110008ED0000088000002080060020F2
:1001C000800200208002002070477047704775460B
:1001D00000F02CF8AE4605006946534620F00700B3
:1001E000854618B020B5FFF7DDFFBDE820404FF091
:1001F00000064FF000074FF000084FF0000BAC4630
:10020000ACE8C009ACE8C009ACE8C009ACE8C0097A
:1002100021F007018D46704710B50446AFF300800A
:100220002046BDE81040FFF7A8BF00000048704717
:100230001000002001491820ABBEFEE72600020096
:100240007047000080B582B040F27501C2F2000133
:100250000120087040F27401C2F200010020087011
:1002600000F02AF800F054FE00F020FE0190FFE7B5
:1002700000F01CFE0199401A44F63F31C0F24C01D7
:10028000884217D8FFE7002002214FF4FA7200F0ED
:100290000DF90020C4F2FA3000F052FE00F006FE24
:1002A00001460198401A4BF6C051CFF6F071084450
:1002B0000190DDE702B080BD80B582B000200190E2
:1002C000032100F037F90198012100F033F901987A
:1002D000052100F02FF90198062100F02BF902B05A
:1002E00080BD000080B540F27800C2F200000068D6
:1002F000804780BD81B08DF8030000208DF802009A
:100300009DF803000F280FDCFFE79DF80310012084
:1003100000FA01F340F21442C4F2010211681943D9
:1003200011608DF8020003E000208DF80200FFE765
:100330009DF8020001B0704781B00090009840F233
:100340007801C2F20001086001B0704780B582B048
:1003500000208DF80700FFE79DF80700102800F344
:10036000A380FFE79DF8071040F20000C2F20000F2
:10037000405C4009C007002877D0FFE79DF80710D0
:10038000012000FA01F340F20042C4F201021168B8
:10039000194311609DF8071000FA01F240F2044180
:1003A000C4F201010868104308609DF8071040F28C
:1003B0000000C2F20000405CC0F3C10001460091A1
:1003C00040B1FFE70098012811D0FFE7009802280C
:1003D0001AD031E09DF80710012000FA01F240F236
:1003E0000841C4F2010108681043086024E09DF848
:1003F0000710012000FA01F240F20C41C4F20101A1
:1004000008681043086017E09DF80710012000FA03
:1004100001F340F20842C4F201021168194311606D
:100420009DF8071000FA01F240F20C41C4F20101FC
:10043000086810430860FFE79DF8071040F20000CD
:10044000C2F20000405C00F00700013060B1FFE73D
:100450009DF8070040F20001C2F20001095C01F0C2
:10046000070100F0DDF9FFE717E09DF80710012014
:1004700000FA01F340F20042C4F20102116899430C
:1004800011609DF8071000FA01F240F20441C4F235
:100490000101086890430860FFE7FFE79DF8070047
:1004A00001308DF8070057E702B080BD80B582B0FB
:1004B0008DF806008DF8051000929DF806009DF855
:1004C0000510012200F048FB20B9FFE700208DF85D
:1004D00007001BE0009800F019FF00F031FD20B983
:1004E000FFE700208DF8070010E09DF806009DF85A
:1004F0000510002200F030FB20B9FFE700208DF846
:10050000070003E001208DF80700FFE79DF80700D2
:1005100002B080BD80B582B08DF807008DF806105E
:100520009DF807009DF80610022200F021FA02B0A3
:1005300080BD000080B582B08DF807008DF80610F0
:100540009DF807009DF80610002200F005FB02B0A0
:1005500080BD000080B582B08DF807008DF80610D0
:100560009DF807009DF80610012200F0F5FA02B090
:1005700080BD000080B582B08DF806008DF80510B2
:100580008DF804209DF80400012808D0FFE79DF8AD
:10059000040020B1FFE700208DF8070045E09DF83A
:1005A0000400E8B9FFE708208DF804009DF8060074
:1005B0009DF805109DF8042000F0DAF920B9FFE756
:1005C00000208DF8070030E09DF806009DF805102A
:1005D0000122009200F0C0FA00988DF8070024E094
:1005E0009DF8040001281CD1FFE708208DF80400C5
:1005F0009DF806009DF805109DF8042000F0B8F95C
:1006000020B9FFE700208DF807000EE09DF80600F6
:100610009DF80510002200F09FFA01208DF80700D8
:1006200003E000208DF80700FFE79DF8070002B007
:1006300080BD000080B582B049F640400190FFE7E0
:100640000198012805DBFFE7FFE7019801380190D9
:10065000F6E7002004210DF1030200F02DF99DF8CA
:100660000300012807D1FFE740F27401C2F2000144
:1006700001200870FFE79DF80300012810D0FFE774
:1006800040F27400C2F200000078012808D0FFE7B1
:1006900040F27500C2F200000078012807D1FFE7A0
:1006A0000420FFF727FE0A2000F0FEFA23E00020D6
:1006B00005210DF1020200F0FFF89DF8020001286B
:1006C00007D1FFE70420FFF715FE0A2000F0ECFA3F
:1006D00010E0FFF7F1FD00F011F800F051F800F024
:1006E0000DF800F075F80420FFF704FE0A2000F072
:1006F000DBFAFFE7FFE702B080BD000080B584B001
:10070000002003900290FFE7039848F66F01C0F2C3
:100710000201884231D8FFE7002001900221FFF753
:1007200019FF01980290FFE7029844F61F61884282
:1007300005D8FFE7FFE7029801300290F4E703983D
:1007400044F6206108440390002000900221FFF746
:10075000F1FE00980290FFE7029844F61F6188427C
:1007600005D8FFE7FFE7029801300290F4E703980D
:1007700044F6206108440390C6E704B080BD000041
:1007800080B584B0FFF798FD002002900521FFF7A7
:10079000E1FE02980321FFF7DDFE02980390FFE7D8
:1007A000039848F66F01C0F20201884205D8FFE7BE
:1007B000FFE7039801300390F2E700200190052144
:1007C000FFF7B8FE01980321FFF7B4FE04B080BD27
:1007D00080B584B0FFF770FD002002900121FFF783
:1007E000B9FE02980621FFF7B5FE02980390FFE7D5
:1007F000039848F66F01C0F20201884205D8FFE76E
:10080000FFE7039801300390F2E7002001900121F7
:10081000FFF790FE01980621FFF78CFE04B080BD23
:1008200082B08DF806008DF8051000208DF80400C8
:100830009DF806000F2805DCFFE79DF8050003285A
:1008400005DBFFE79DF804008DF8070030E09DF818
:10085000060080088DF803009DF8060000F00300F4
:100860008DF806009DF8060081000F2000FA01F3C4
:100870009DF803200821C4F2010151F82200984399
:1008800041F822009DF805009DF80620920000FA2C
:1008900002F39DF8032051F82200184341F822008A
:1008A00001208DF804009DF804008DF80700FFE793
:1008B0009DF8070002B0704784B08DF80F008DF8E6
:1008C0000E10029200208DF807000298002846D0F2
:1008D000FFE79DF80F000146009140B1FFE7009847
:1008E000012815D0FFE70098022822D032E040F618
:1008F0000800C4F2010001689DF80E20012000FAF2
:1009000002F31940D140029A11708DF8070025E0DA
:1009100040F60840C4F2010001689DF80E20012055
:1009200000FA02F31940D140029A11708DF80700C5
:1009300014E041F20800C4F2010001689DF80E20A5
:10094000012000FA02F31940D140029A11708DF88B
:10095000070003E000208DF80700FFE703E0002018
:100960008DF80700FFE79DF8070004B0704700000E
:1009700082B08DF807008DF806108DF80520002054
:100980008DF804009DF807000146009148B1FFE78B
:10099000009801284BD0FFE70098022800F08D80D6
:1009A000D1E09DF8060007281BDCFFE79DF8060054
:1009B00081000F2000FA01F240F60001C4F20101AB
:1009C0000868904308609DF805009DF80620920095
:1009D00000FA02F208681043086001208DF8040054
:1009E00024E09DF806000F281BDCFFE79DF80600B9
:1009F00081000F2000FA01F240F60401C4F2010167
:100A00000868904308609DF805009DF80620920054
:100A100000FA02F208681043086001208DF8040013
:100A200003E000208DF80400FFE7FFE78FE09DF86A
:100A3000060007281BDCFFE79DF8060081000F2059
:100A400000FA01F240F60041C4F201010868904347
:100A500008609DF805009DF80620920000FA02F259
:100A600008681043086001208DF8040024E09DF818
:100A700006000F281BDCFFE79DF8060081000F2011
:100A800000FA01F240F60441C4F201010868904303
:100A900008609DF805009DF80620920000FA02F219
:100AA00008681043086001208DF8040003E000206E
:100AB0008DF80400FFE7FFE749E09DF806000728EE
:100AC0001BDCFFE79DF8060081000F2000FA01F211
:100AD00041F20001C4F201010868904308609DF8EA
:100AE00005009DF80620920000FA02F20868104303
:100AF000086001208DF8040024E09DF806000F280E
:100B00001BDCFFE79DF8060081000F2000FA01F2D0
:100B100041F20401C4F201010868904308609DF8A5
:100B200005009DF80620920000FA02F208681043C2
:100B3000086001208DF8040003E000208DF8040017
:100B4000FFE7FFE703E000208DF80400FFE79DF8D2
:100B5000040002B07047000085B08DF813008DF8D6
:100B600012108DF8112000208DF810009DF8130050
:100B70000146039140B1FFE70398012831D0FFE718
:100B8000039802285AD086E09DF811000146029190
:100B900098B1FFE7029801281ED1FFE79DF81210D7
:100BA000012000FA01F340F60C02C4F201021168C0
:100BB000194311608DF8100012E09DF81210012009
:100BC00000FA01F340F60C02C4F2010211689943E5
:100BD00011608DF8100003E000208DF81000FFE791
:100BE0005DE09DF811000146019198B1FFE7019881
:100BF00001281ED1FFE79DF81210012000FA01F331
:100C000040F60C42C4F201021168194311608DF8DC
:100C1000100012E09DF81210012000FA01F340F6D6
:100C20000C42C4F201021168994311608DF8100062
:100C300003E000208DF81000FFE730E09DF8110080
:100C40000146009198B1FFE7009801281ED1FFE707
:100C50009DF81210012000FA01F341F20C02C4F2D7
:100C600001021168194311608DF8100012E09DF81F
:100C70001210012000FA01F341F20C02C4F2010249
:100C80001168994311608DF8100003E000208DF881
:100C90001000FFE703E000208DF81000FFE79DF84B
:100CA000100005B07047000081B08DF803000020EF
:100CB0008DF802009DF803001F280DDCFFE79DF86A
:100CC0000310012000FA01F14EF28022CEF2000260
:100CD00011608DF8020029E09DF803003F280FDC29
:100CE000FFE79DF80300A0F12001012000FA01F1C7
:100CF0004EF28422CEF2000211608DF8020014E060
:100D00009DF8030043280FDCFFE79DF80300A0F1E6
:100D10004001012000FA01F14EF28822CEF20002D9
:100D200011608DF80200FFE7FFE7FFE79DF8020082
:100D300001B0704781B08DF8030000208DF80200EB
:100D40009DF803001F280DDCFFE79DF8031001202C
:100D500000FA01F14EF20012CEF2000211608DF89D
:100D600002002DE09DF803003F280FDCFFE79DF80F
:100D70000300A0F12001012000FA01F14EF204125B
:100D8000CEF2000211608DF8020018E09DF8030019
:100D900043280FDCFFE79DF80300A0F1400101208C
:100DA00000FA01F14EF20812CEF2000211608DF845
:100DB000020003E000208DF80200FFE7FFE7FFE7F5
:100DC0009DF8020001B0704782B08DF807008DF8E1
:100DD000061000208DF805009DF8070001460091DF
:100DE00040B1FFE70098012813D0FFE700980228E0
:100DF0001ED02CE09DF80610012000FA01F341F20C
:100E00001402C4F202021168194311608DF8050042
:100E100021E09DF80610012000FA01F341F21C02C6
:100E2000C4F202021168194311608DF8050012E046
:100E30009DF80610012000FA01F341F21802C4F2F5
:100E400002021168194311608DF8050003E00020CB
:100E50008DF80500FFE79DF8050002B0704700001F
:100E600081B000208DF8030041F20001C4F20201BC
:100E7000086820F480200860086840F4803008602A
:100E8000FFE741F20000C4F202000068002008B150
:100E9000FFE7F6E741F20401C4F202010120086015
:100EA0008DF803009DF8030001B0704782B04EF248
:100EB0001800CEF2000000680190019840F2700125
:100EC000C2F200010968884209D2FFE740F27000CF
:100ED000C2F2000000680199401A00900EE04EF244
:100EE0001400CEF200000068019A40F27001C2F2D4
:100EF00000010968891A08440090FFE7019840F250
:100F00007001C2F200010860009802B07047000052
:100F10004EF21001CEF20001086820F001000860D6
:100F20004EF21802CEF20002002010604EF21402BF
:100F3000CEF200021060086820F48030086070472C
:100F400080B584B0029002980021C4F27A4100F08A
:100F5000F1F900F0BBF901909DF8070038BBFFE7FD
:100F600001984EF21401CEF2000108604EF2100119
:100F7000CEF20001086840F001000860FFE74EF281
:100F80001000CEF200000068C003002801D4FFE783
:100F9000F5E74EF21001CEF20001086820F00100E2
:100FA0000860FFF7B5FF01208DF80F0003E0002077
:100FB0008DF80F00FFE79DF80F0004B080BD000022
:100FC00080B500F001F880BD84B00020039002904D
:100FD00041F20001C4F20201086840F48030086068
:100FE000FFE741F20000C4F20200006800F40030A4
:100FF0000290039801300390FFE7029900200190CE
:1010000039B9FFE70398B0F5A06018BF012001903F
:10101000FFE70198C0070028E3D1FFE741F2000095
:10102000C4F2020000688003002803D5FFE7012016
:10103000029002E000200290FFE70298012851D1BF
:10104000FFE742F20001C4F20201086840F010001C
:101050000860086820F007000860086840F0020097
:10106000086041F20401C4F20201009108680860BE
:1010700008680860086840F480600860086820F428
:101080007C100860086840F4E810086041F2000134
:10109000C4F20201086840F080700860FFE741F286
:1010A0000000C4F2020000688001002801D4FFE7BC
:1010B000F5E741F20401C4F20201086820F00300E0
:1010C0000860086840F002000860FFE741F2040091
:1010D000C4F20200006800F00C00082801D0FFE70D
:1010E000F4E700E0FFE704B07047000080B584B08B
:1010F00040F27501C2F2000100200390087040F236
:101100007401C2F200010870FFF7D6F803980521B8
:101110000191FFF71FFA039803210291FFF71AFAD2
:1011200044F20000C4F29C50FFF70AFF01990398B3
:10113000FFF700FA02990398FFF7FCF904B080BDAD
:1011400080B584B040F27501C2F200010020039026
:10115000087040F27401C2F200010870FFF7ACF8A9
:10116000039801210191FFF7F5F9039806210291F7
:10117000FFF7F0F944F20000C4F29C50FFF7E0FEE4
:1011800001990398FFF7D6F902990398FFF7D2F96E
:1011900004B080BD80B586B08DF817009DF81700AB
:1011A000012813D1FFE70020039002210491FFF7EB
:1011B000C1F9FFF7C5FFFFF745F803980499FFF75A
:1011C000B9F9FFF793FFFFF73DF812E00020019017
:1011D00002210291FFF7AEF9FFF788FFFFF732F81F
:1011E00001980299FFF7A6F9FFF7AAFFFFF72AF87F
:1011F000FFE706B080BD000080B541F20002C4F2F6
:101200000202106840F00100106041F20401C4F2D3
:10121000020108680023CFF6FF0318400860106839
:101220004FF6FF73CFF6F66318401060106820F495
:1012300080201060086820F4FE00086041F2080178
:10124000C4F202014FF41F000860FFF7B9FE4EF62A
:101250000851CEF200014FF00060086080BD000030
:1012600080B584B0002002900390FFF7F9FD0221C1
:1012700000910846FFF7A8FD02980321FFF74AF9FD
:10128000029801210191FFF745F902980521FFF726
:1012900041F902980621FFF73DF900990298FFF7FE
:1012A00039F9019A02980421FFF764F9FFF74EF823
:1012B00040F23560C0F60000FFF73EF80A20FFF765
:1012C00039FDFFE70120FFF765FFFBE7C10DD1F115
:1012D0009E0206DB4FEA002343F0004323FA02F0AC
:1012E0007047004207D54FEA4001B1F1FE4F02D2EC
:1012F0004FF00000704710B500F09DF8499224802F
:10130000002070476FEA200070470000B0FA80F3B9
:1013100010FA03F2C3F19D030AD0D90501EB1220A4
:10132000530638BF704700F1010008BF20F00100EC
:10133000704700004FF47F0C1CEAD0121EBF1CEA5D
:10134000D11392EA0C0F93EA0C0F00F0478090EA59
:10135000010F48BF42F480724FF0004C4CEA00206D
:101360004CEA012102EB0302A0FB0113A2F50002EB
:10137000002918BF43F001035B0028BF4FEA330385
:1013800042EB22425FEA132C4CEBC2502EBFBCEB67
:10139000436FB2F57C0F70474FEA036CBCF1004F0E
:1013A00008BF20F00100B2F57C0F38BF70470BD5A5
:1013B00082F0FF0212F5803FC8BF704700F1C040C5
:1013C000D8BF00F00040704700F5000C5FEA4C0CFD
:1013D00048BF7047B0F1C04000F073B80CEAD113B9
:1013E00090EA010F48BF42F48072624538BF6345FE
:1013F00004D280EA010000F00040704710B500F010
:101400001AF800BF8900013E00F007B800F009B8E3
:101410005FEA410C5FEA1C6C08D080EA010000F032
:1014200050B85FEA400C5FEA1C6CF6D14FF0004008
:10143000A0F5800070470EF1020E2EF0030E5EF84C
:10144000044B244204D44FEA4102B2F17F4F11D839
:101450004FEA4003B3F17F4F0CD80ED14FEAD07C56
:101460000CEB4C0C0CF1020CB2F17F4F08BF4CEBB3
:10147000D17C04E04FF0080C01E04FEAD17C0CEB8A
:101480004C0324FA03F404F00704B4F1040C06D26C
:101490000EEB840CBDE810404CF0010C6047DFE817
:1014A0000CF0070802024FF00040A0F5800010BDCC
:1014B0000846420018BFD2F1807288BF00F0004099
:1014C00010BDFF2141EAD050C0057047EC14000860
:1014D000000000201000000028010008FC14000893
:1014E000100000207006000044010008170F1717B5
:0C14F000201717171717171717171717D3
:040000050800018965
:00000001FF
