:020000040800F2
:10000000600600206D0100087501000877010008F6
:10001000790100087B0100087D0100080000000054
:100020000000000000000000000000007F01000848
:10003000810100080000000083010008850100081C
:100040008701000887010008870100088701000870
:100050008701000887010008870100088701000860
:100060008701000887010008870100088701000850
:100070008701000887010008870100088701000840
:100080008701000887010008870100088701000830
:100090008701000887010008870100088701000820
:1000A0008701000887010008870100088701000810
:1000B0008701000887010008870100088701000800
:1000C00087010008870100088701000887010008F0
:1000D00087010008870100088701000887010008E0
:1000E00087010008870100088701000800F002F876
:1000F00000F02CF80AA090E8000C82448344AAF196
:100100000107DA4501D100F021F8AFF2090EBAE893
:100110000F0013F0010F18BFFB1A43F0010318473B
:10012000680900007809000000230024002500264B
:10013000103A28BF78C1FBD8520728BF30C148BF4A
:100140000B6070471FB51FBD10B510BD00F031F832
:100150001146FFF7F7FF00F083FB00F04FF803B400
:10016000FFF7F2FF03BC00F057F800000948804792
:1001700009480047FEE7FEE7FEE7FEE7FEE7FEE789
:10018000FEE7FEE7FEE7FEE704480549054A064BA1
:1001900070470000F9070008ED000008600000202B
:1001A0006006002060020020600200207047704757
:1001B0007047754600F02CF8AE4605006946534678
:1001C00020F00700854618B020B5FFF7DDFFBDE839
:1001D00020404FF000064FF000074FF000084FF0AE
:1001E000000BAC46ACE8C009ACE8C009ACE8C009FB
:1001F000ACE8C00921F007018D46704710B50446F0
:10020000AFF300802046BDE81040FFF7A8BF000014
:10021000004870470000002001491820ABBEFEE7EF
:10022000260002007047000082B08DF807008DF8AC
:1002300006108DF8052000208DF804009DF80700B9
:100240000146009148B1FFE7009801284BD0FFE735
:100250000098022800F08D80D1E09DF80600072864
:100260001BDCFFE79DF8060081000F2000FA01F279
:1002700040F60001C4F201010868904308609DF84F
:1002800005009DF80620920000FA02F2086810436B
:10029000086001208DF8040024E09DF806000F2876
:1002A0001BDCFFE79DF8060081000F2000FA01F239
:1002B00040F60401C4F201010868904308609DF80B
:1002C00005009DF80620920000FA02F2086810432B
:1002D000086001208DF8040003E000208DF8040080
:1002E000FFE7FFE78FE09DF8060007281BDCFFE72C
:1002F0009DF8060081000F2000FA01F240F600414F
:10030000C4F201010868904308609DF805009DF85B
:100310000620920000FA02F20868104308600120EB
:100320008DF8040024E09DF806000F281BDCFFE791
:100330009DF8060081000F2000FA01F240F604410A
:10034000C4F201010868904308609DF805009DF81B
:100350000620920000FA02F20868104308600120AB
:100360008DF8040003E000208DF80400FFE7FFE7AC
:1003700049E09DF8060007281BDCFFE79DF8060012
:1003800081000F2000FA01F241F20001C4F20101E4
:100390000868904308609DF805009DF806209200CB
:1003A00000FA02F208681043086001208DF804008A
:1003B00024E09DF806000F281BDCFFE79DF80600EF
:1003C00081000F2000FA01F241F20401C4F20101A0
:1003D0000868904308609DF805009DF8062092008B
:1003E00000FA02F208681043086001208DF804004A
:1003F00003E000208DF80400FFE7FFE703E00020A2
:100400008DF80400FFE79DF8040002B0704700007B
:1004100085B08DF813008DF812108DF81120002092
:100420008DF810009DF813000146039140B1FFE7DD
:100430000398012831D0FFE7039802285AD086E0BC
:100440009DF811000146029198B1FFE7029801283A
:100450001ED1FFE79DF81210012000FA01F340F6CB
:100460000C02C4F201021168194311608DF81000EA
:1004700012E09DF81210012000FA01F340F60C0280
:10048000C4F201021168994311608DF8100003E075
:1004900000208DF81000FFE75DE09DF81100014697
:1004A000019198B1FFE7019801281ED1FFE79DF85F
:1004B0001210012000FA01F340F60C42C4F20102CE
:1004C0001168194311608DF8100012E09DF81210A8
:1004D000012000FA01F340F60C42C4F20102116857
:1004E000994311608DF8100003E000208DF8100092
:1004F000FFE730E09DF811000146009198B1FFE759
:10050000009801281ED1FFE79DF81210012000FA83
:1005100001F341F20C02C4F20102116819431160A7
:100520008DF8100012E09DF81210012000FA01F37E
:1005300041F20C02C4F201021168994311608DF876
:10054000100003E000208DF81000FFE703E000201A
:100550008DF81000FFE79DF8100005B0704700000F
:1005600082B08DF807008DF8061000208DF8050088
:100570009DF807000146009140B1FFE7009801286F
:1005800013D0FFE7009802281ED02CE09DF806103B
:10059000012000FA01F341F21402C4F202021168D0
:1005A000194311608DF8050021E09DF80610012027
:1005B00000FA01F341F21C02C4F20202116819436D
:1005C00011608DF8050012E09DF80610012000FA78
:1005D00001F341F21802C4F20202116819431160DA
:1005E0008DF8050003E000208DF80500FFE79DF879
:1005F000050002B07047000081B000208DF80300B4
:1006000041F20001C4F20201086820F48020086071
:10061000086840F480300860FFE741F20000C4F24F
:1006200002000068002008B1FFE7F6E741F204018C
:10063000C4F20201012008608DF803009DF8030058
:1006400001B0704780B584B0029002980021C4F2D6
:100650007A4100F04DF900F02BF901909DF8070068
:1006600058BBFFE701984EF21401CEF2000108607A
:100670004EF21001CEF20001086840F0010008605F
:10068000FFE74EF21000CEF200000068C003002821
:1006900001D4FFE7F5E74EF21001CEF20001086841
:1006A00020F0010008604EF21801CEF20001002097
:1006B000086001208DF80F0003E000208DF80F0086
:1006C000FFE79DF80F0004B080BD000080B500F08A
:1006D00001F880BD84B000200390029041F2000137
:1006E000C4F20201086840F480300860FFE741F27C
:1006F0000000C4F20200006800F400300290039889
:1007000001300390FFE702990020019039B9FFE71B
:100710000398B0F5A06018BF01200190FFE7019891
:10072000C0070028E3D1FFE741F20000C4F2020055
:1007300000688003002803D5FFE70120029002E053
:1007400000200290FFE70298012851D1FFE742F212
:100750000001C4F20201086840F010000860086857
:1007600020F007000860086840F00200086041F2CD
:100770000401C4F20201009108680860086808607A
:10078000086840F480600860086820F47C10086005
:10079000086840F4E810086041F20001C4F2020168
:1007A000086840F080700860FFE741F20000C4F282
:1007B000020000688001002801D4FFE7F5E741F25C
:1007C0000401C4F20201086820F003000860086810
:1007D00040F002000860FFE741F20400C4F20200AA
:1007E000006800F00C00082801D0FFE7F4E700E003
:1007F000FFE704B07047000080B541F20002C4F288
:100800000202106840F00100106041F20401C4F2DD
:10081000020108680023CFF6FF0318400860106843
:100820004FF6FF73CFF6F66318401060106820F49F
:1008300080201060086820F4FE00086041F2080182
:10084000C4F202014FF41F000860FFF73FFF4EF6AD
:100850000851CEF200014FF00060086080BD00003A
:1008600080B586B0002004900590FFF7C5FE0221F8
:1008700003910846FFF774FE039A04980721FFF7D7
:10088000D3FCFFE700200190072100910122FFF730
:10089000BFFD0020C4F2FA300290FFF7D3FE0099AA
:1008A000019A1046FFF7B4FD0298FFF7CBFEE9E787
:1008B000C10DD1F19E0206DB4FEA002343F0004355
:1008C00023FA02F07047004207D54FEA4001B1F128
:1008D000FE4F02D24FF00000704710B500F089F8CB
:1008E00049922480002070476FEA20007047000082
:1008F0004FF47F0C1CEAD0121EBF1CEAD11392EAFF
:100900000C0F93EA0C0F00F0478090EA010F48BFEC
:1009100042F480724FF0004C4CEA00204CEA012176
:1009200002EB0302A0FB0113A2F50002002918BF8D
:1009300043F001035B0028BF4FEA330342EB22423E
:100940005FEA132C4CEBC2502EBFBCEB436FB2F5E9
:100950007C0F70474FEA036CBCF1004F08BF20F0DA
:100960000100B2F57C0F38BF70470BD582F0FF0253
:1009700012F5803FC8BF704700F1C040D8BF00F0FB
:100980000040704700F5000C5FEA4C0C48BF704710
:10099000B0F1C04000F073B80CEAD11390EA010F37
:1009A00048BF42F48072624538BF634504D280EA92
:1009B000010000F00040704710B500F01AF800BFC9
:1009C0008900013E00F007B800F009B85FEA410C69
:1009D0005FEA1C6C08D080EA010000F050B85FEAC2
:1009E000400C5FEA1C6CF6D14FF00040A0F580008F
:1009F00070470EF1020E2EF0030E5EF8044B2442F7
:100A000004D44FEA4102B2F17F4F11D84FEA4003BC
:100A1000B3F17F4F0CD80ED14FEAD07C0CEB4C0CCD
:100A20000CF1020CB2F17F4F08BF4CEBD17C04E01B
:100A30004FF0080C01E04FEAD17C0CEB4C0324FA98
:100A400003F404F00704B4F1040C06D20EEB840C9A
:100A5000BDE810404CF0010C6047DFE80CF00708DF
:100A600002024FF00040A0F5800010BD0846420091
:100A700018BFD2F1807288BF00F0004010BDFF2186
:100A800041EAD050C0057047980A000800000020D5
:080A90006006000028010008C7
:040000050800016D81
:00000001FF
